:0600000000F071EF1CF09E
:1038C000C5CF01F01F0E0116FBE1C7A41F0CF8D7EE
:1038D0002DEC1DF065EC1DF00009FCE0DFEC1DF0A7
:1038E000F9D71A6A196A186A176A166A156A000EF1
:1038F000F86E000168EF1CF0C6500F0B080A04E0D8
:10390000C6500F0B0B0A01E1C586C7A0FED7C950F0
:1039100012003F0EC716080EC66EC56AC78E090E86
:10392000C86E130EC86E94869488C68A130C026EF5
:1039300002C0C9FFC6BE1200C6500F0B080A05E040
:10394000C6500F0B0B0AD8A41200C7B0FED760EC0C
:103950001CF0C550120060EC1CF0C580C5B0FED74D
:10396000C00E97EC1CF060EC1CF0155097EC1CF0AE
:1039700060EC1CF0165097EC1CF060EC1CF017503B
:1039800097EC1CF060EC1CF0185097EC1CF060EC0D
:103990001CF0400E97EC1CF0C584C5A41200FDD7A6
:1039A000096A0A6A0B6A0C6A01A008D00550092648
:1039B00006500A2207500B2208500C22D8900536D8
:1039C000063607360836D890043203320232013206
:1039D0000150021003100410E7E109C001F00AC011
:1039E00002F00BC003F00CC004F0120000F000F075
:1039F00000F060EC1CF0C580C5B0FED7C10E97EC9E
:103A00001CF07CEC1CF0036EC59AC588C5B8FED7C7
:103A10007CEC1CF0046EC59AC588C5B8FED77CEC5A
:103A20001CF0C59AC588C5B8FED77CEC1CF0C59AB9
:103A3000C588C5B8FED77CEC1CF0C58AC588C5B85A
:103A4000FED7C584C5B4FED703507F0B156E04287E
:103A5000166E00F000F000F012000F0EC16E89EC3F
:103A60001CF0700ED36EF30E936EF19E030E8A6EF1
:103A70008196819424EC1EF02CEC1EF023D8A0EC4F
:103A80001DF0010E036E030EA0EC1DF0010E036E7F
:103A9000040EA0EC1DF0010E036E050EA0EC1DF04F
:103AA00011D8A0EC1DF0010E036E060EA0EC1DF067
:103AB000010E036E080EA0EC1DF0020E036E090E3F
:103AC000A0EF1DF0010E036E020C81A002D081B2A6
:103AD00031D0820E016EDE0EE82EFED7012EFCD70D
:103AE00081A081B202D0100E23D081B011D0026A21
:103AF00024D8E82EFED7012EFCD700F0022A030EB0
:103B00000264F6D781B002D0110E12D0120E10D07E
:103B100081B210D0026A11D8E82EFED7012EFCD750
:103B200000F0022A030E0264F6D7130E81B2140EBF
:103B3000196E01D0196A19501200C30E016ECD0C16
:103B4000046E26D017980338F00B1FD0179633D881
:103B50001CD0189630D811D018940344E846FC0BBA
:103B60000CD018920350032408D0189C0340E8425C
:103B7000C00B03D018980338F00B1812ABEF1CF0F1
:103B80009F0E17160338E846E00B1712ABEF1CF038
:103B90000450020AD7E0010AD9E0070ADAE0010A74
:103BA000DBE0030ADEE0010AE0E00F0AE3E0010ADD
:103BB000E7E0ABEF1CF00338E842F80B120025D029
:103BC0001A72000E1AB2010E036E070EA0EC1DF061
:103BD00027D01AA005D00E6A0D6A2CEC1EF020D05A
:103BE000220E0E6E7E0E0D6E2CEC1EF019D01A7089
:103BF00017D01AA006D00E6A010E0D6E2CEC1EF026
:103C00000FD022D82CEC1EF00BD01950100A08E06F
:103C1000010AD6E0030ADDE0010AE9E0070AE9E06B
:103C2000196A17D8E82EFED7142EFCD700F011D849
:103C3000E82EFED7142EFCD700F00BD8E82EFED7C6
:103C4000142EFCD700F01200280E0E6E0A0E0D6E18
:103C50000A0CC30E146ECD0C0D040E1006E1158C6B
:103C6000178EF6EC1CF0ABEF1CF00D500E1003E1BC
:103C7000158C179EF6D70DC010F00EC011F0000E77
:103C800011BEFF0E126E136E10C001F011C002F0D3
:103C900012C003F013C004F0100E056E270E066E5E
:103CA000076A086AD0EC1CF001C010F002C011F0E5
:103CB00003C012F004C013F0E80E10266E0E11229D
:103CC000030E1222000E1322020ED8901036113667
:103CD00012361336E82EF9D70F0E0F6ED890133226
:103CE0001232113210320F2EF9D710C00DF011C060
:103CF0000EF0156A0E50156E0DC016F0ABEF1CF0ED
:020000040030CA
:08000000FF09181EFF8101FF3A
:00000001FF
